:0A0000000C94D5000C9400000C9441
:10000A0000000C9400000C9400000C9400000C9466
:10001A0000000C9400000C9400000C9400000C9456
:10002A0000000C9400000C9400000C9400000C9446
:10003A0000000C9400000C9400000C9400000C9436
:10004A0000000C9400000C9400000C9400000C9426
:10005A0000000C9400000C9400000C9400000C9416
:10006A0000000C9400000C9400000C9400000C9406
:10007A0000001027E80364000A00010000100001D4
:10008A001000010000000100010001000100010050
:10009A000100000001000000000000000000000054
:1000AA000000010001000000000000000000000044
:1000BA00000001000100010001000100010001002F
:1000CA000100010001000000000000000000000023
:1000DA000000010001000000000000000000000014
:1000EA000000010001000000000000000000000004
:1000FA0000000100010000000000000000000000F4
:10010A0000000100010001000100010001000100DE
:10011A0000000000010000000000000000000000D4
:10012A0001000000010000000000000000000000C3
:10013A0001000000010001000100010001000100AE
:10014A0000000000010000000000000000000000A4
:10015A000100000001000000000000000000000093
:10016A000100000001000000000000000000000083
:10017A00010000000100010001000100010001006E
:10018A0001002D4E414E00494E4600007F0080027C
:10019A008E007B0000030E01010080038A0100002B
:1001AA00F894EE27EFBBF1E0F5BFE5BF8DE0A2E0E2
:1001BA00BB27ED938A95E9F780E094E0A0E0B1E0EF
:1001CA00ED930197E9F7E6E9F1E0859195910097BA
:1001DA0061F0A591B59105901590BF01F0010590C8
:1001EA000D920197E1F7FB01F0CFE0E0EEBBEFEFF4
:1001FA00EDBFE4E0EEBFC0E0D2E00C947401ABD0F6
:10020A0000E010E00830E0E01E078CF420E030E067
:10021A002830E0E03E0744F475D0E0E0F0E0ED93EA
:10022A00FC932F5F3F4FF4CF0F5F1F4FEBCF54C0AC
:10023A0092D000E010E00830E0E01E07ECF4E02F76
:10024A00A1E093D0E095E2B9E0E0E5B920E030E042
:10025A002830E0E03E0754F415B054D0AC91E22FB8
:10026A0084D0E129E5B92F5F3F4FF2CFACE3B0E08C
:10027A008DD00F5F1F4FDFCF2FC06DD000E010E091
:10028A000830E0E01E0784F420E030E02830E0E0A7
:10029A003E073CF442D0E058FD4F4DD02F5F3F4F10
:1002AA00F5CF0F5F1F4FECCF17C055D000E010E01D
:1002BA000830E0E01E0784F420E030E02830E0E077
:1002CA003E073CF42AD0E050FD4F35D02F5F3F4F18
:1002DA00F5CF0F5F1F4FECCF43D024960895EFEF71
:1002EA00E1B9E4B9E0E0E2B9EFEFE5B9C6DF2FD052
:1002FA00A0EDB7E04BD0D9DF2AD0A8EEB3E046D0C4
:10030A00F5CFFFCFF80139D0E050FE4FDF01F901F8
:10031A00EE0FFF1FAE0FBF1F0895F8012ED0E05059
:10032A00FE4FDF01F901EE0FFF1FEA0FFB1F0F015E
:10033A00F80123D00895DF01F901EE0FFF1FAE0F78
:10034A00BF1FED91FD91D001ED93FC93089570DFED
:10035A006FDF55DF6DCF3A932A931A930A93089564
:10036A003B812A81198108810895EE230E2EEA2FF6
:10037A0019F0EE0F0A94E9F70895EE0FFF1FEE0F3A
:10038A00FF1FEE0FFF1FEE0FFF1F0895109639F0A3
:10039A00A89588E893E10197F1F71197C9F70895AD
:00000001FF
