:0E0000000C944F010C9400000C9400000C9422
:10000E0000000C9400000C9400000C9400000C9462
:10001E0000000C9400000C9400000C9400000C9452
:10002E0000000C9400000C9400000C9400000C9442
:10003E0000000C9400000C9400000C9400000C9432
:10004E0000000C9400000C9400000C9400000C9422
:10005E0000000C9400000C9400000C9400000C9412
:10006E0000000C9400000C9400000C9400000000A2
:10007E000100000000000000010000000000000070
:10008E000100000000000000010000000000000060
:10009E000000000000000000010001000000000050
:1000AE000100010000000000000000000000000040
:1000BE00000001000000000001000100000000002F
:1000CE000000010000000000000000000000000021
:1000DE00000001000000000001000100000000000F
:1000EE000100000000000000000000000000000001
:1000FE0001000000000000000100010000000000EF
:10010E0000000100000000000000000000000000E0
:10011E0001000000000000000100000000000000CF
:10012E0001000100000000000000000000000000BF
:10013E0000000100000000000000010000000000AF
:10014E000100010000000000000000000000102768
:10015E00E80364000A000100001000011000010015
:10016E00000009000900000000000000000000006F
:10017E00000000000000090009000900090000004D
:10018E000000000000000000000000000000090058
:10019E000900090009000000000000000000000036
:1001AE00000000000000090009000900090000001D
:1001BE000000000000000000000000000000090028
:1001CE000900090009000000000000000000000006
:1001DE0000000000000009000900090009000000ED
:1001EE0000000000000000000000000000000900F8
:1001FE0009000900090000000000000000000000D6
:10020E0000000000000009000900090009000000BC
:10021E0000000000000000000000000000000900C7
:10022E000900090009000900090009000900090078
:10023E000900090009000900090009000900090068
:10024E000900090009000900090009000900090058
:10025E000900496E76616C696420636F6D6D616E25
:10026E0064210A0047616D65204F766572210A0090
:10027E0001002D4E414E00494E4600000100070080
:10028E006E01EF0000027001010010037E020000FB
:10029E00F894EE27EFBBF1E0F5BFE5BF8DE0A2E0ED
:1002AE00BB27ED938A95E9F780E094E0A0E0B1E0FA
:1002BE00ED930197E9F7EAE8F2E0859195910097C1
:1002CE0061F0A591B59105901590BF01F0010590D3
:1002DE000D920197E1F7FB01F0CFE0E0EEBBEFEFFF
:1002EE00EDBFE4E0EEBFC0E0D2E00C94DA03A6D49A
:1002FE00AD0100E010E00430E0E01E07ECF420E079
:10030E0030E02430E0E03E07A4F41BD423D4EE0FFB
:10031E00FF1FAED4E458FF4FDF01F801ABD41FD45A
:10032E00EA0FFB1FF7D4DB01ED93FC932F5F3F4FDA
:10033E00E8CF0F5F1F4FDFCFC3C182D400E010E0C4
:10034E000430E0E01E07C4F420E030E02430E0E0AA
:10035E003E077CF4F6D309D4E130A0E0FA0731F47D
:10036E0009D417D402D4D001ED93FC932F5F3F4FE5
:10037E00EDCF0F5F1F4FE4CF13C262D400E010E049
:10038E000430E0E01E07A4F420E030E02430E0E08A
:10039E003E075CF4D6D3E9D3E130A0E0FA0711F4BE
:1003AE00E9D3FBD32F5F3F4FF1CF0F5F1F4FE8CF46
:1003BE00F7C1C3DFE1E08E2E0895A0973FD4AD01C3
:1003CE00E1E0F0E0E417F50721F500E010E004307D
:1003DE00E0E01E07ECF420E030E02430E0E03E07E1
:1003EE00A4F4F90147D4DE011696AE0FBF1FE3E069
:1003FE00F0E0E01BF10BEE0FFF1FCBD3B6D3D00115
:10040E00ED93FC932F5F3F4FE8CF0F5F1F4FDFCF72
:10041E0028C0EFEFFFEFE417F50719F500E010E045
:10042E000430E0E01E07ECF420E030E02430E0E0A1
:10043E003E07A4F4E3E0F0E0E21BF30B1BD4DE0175
:10044E001696AE0FBF1FF801EE0FFF1FA2D38DD36E
:10045E00D001ED93FC932F5F3F4FE8CF0F5F1F4FFF
:10046E00DFCF00E010E00430E0E01E07CCF420E027
:10047E0030E02430E0E03E0784F463D3EA0FFB1F44
:10048E000F01F801F7D3DE01169669D36ED3D001B2
:10049E00ED93FC932F5F3F4FECCF0F5F1F4FE3CFDA
:1004AE00D4D3A6960895CCD300E010E00830E0E057
:1004BE001E07F4F4E02FA1E0D3D3E095E2B9E0E01B
:1004CE00E5B922E030E02A30E0E03E075CF465B1A9
:1004DE006BD3AC91E22FE250C3D3E62BE5B92F5F7D
:1004EE003F4FF1CFA2E0B0E019D40F5F1F4FDECF28
:1004FE0057C12297A3D300E010E00430E0E01E07BE
:10050E008CF520E030E02430E0E03E0744F519D3CE
:10051E0059D311F1F801E30DF41DAF01F901E50D09
:10052E00F61DEE83FF8355235AF04A30E0E05E0756
:10053E003CF4AF81AA2322F0AE81BF811C9714F048
:10054E00E0E011C046D3DF01EE81FF81EE0FFF1F09
:10055E0039D311F0E0E007C02F5F3F4FD4CF0F5FCC
:10056E001F4FCBCFE1E071D3289608951A930A93CB
:10057E008D0103DF500E611EBCDFE03011F4501A06
:10058E00610ADBDEC3C0F9DEE1E0F0E03E0E4F1E95
:10059E00B0DFE13011F4D1DE07C0E32DF42D319739
:1005AE003E2E4F2ECADE05DF08951A930A938D0153
:1005BE00F801E130A0E0FA0721F4AFEFBFEFD6DF8C
:1005CE0021C0E230A0E0FA0721F4A1E0B0E0CEDFD6
:1005DE0019C0E330A0E0FA0761F4CFDEA1E0B0E08D
:1005EE00ECDE87DFE03019F4AFEFBFEFE6DEA5DE1D
:1005FE0009C0E430A0E0FA0711F4C5DF03C0E0E65D
:10060E00F2E0EFD283C01AD307E010E011230AF410
:10061E0057C02197E1E0E88321E030E02930E0E0A7
:10062E003E0764F4C1D2ED91FC911197309719F405
:10063E00E0E0E88303C02F5F3F4FF0CFE881E0306A
:10064E00D9F122E030E02A30E0E03E073CF4A80188
:10065E00C0D2CDD2A2D22F5F3F4FF5CF24DFA8015B
:10066E00002404160506D4F422E030E02A30E0E03F
:10067E003E078CF4AED2BBD26DD23197A8E1B0E07A
:10068E0000D3E050FE4FB3D270D2DB01ED93FC935A
:10069E002F5F3F4FEBCF41505040E2CF22E030E092
:1006AE002A30E0E03E0734F4F901A6D276D22F5F6D
:1006BE003F4FF6CF0F5F1F4F219601501040A6CF30
:1006CE00C4D22696089508D2DF01E7E0F0E014D3F5
:1006DE0008951A930A9302E010E00A30E0E01E0734
:1006EE00A4F4F80189D26ED239F4A8E1B2E0F8018F
:1006FE00EE0FFF1F67D231F0E1E07E2EE2E7F2E06F
:10070E0070D204C00F5F1F4FE8CF77240991199163
:10071E000895379909C0ACE3B0E000D3379903C010
:10072E00E1E0F0E0089520C0369909C0ACE3B0E0F6
:10073E00F5D2369903C0E2E0F0E0089515C0359980
:10074E0009C0ACE3B0E0EAD2359903C0E3E0F0E0D3
:10075E0008950AC0349908C0ACE3B0E0DFD23499F2
:10076E0003C0E4E0F0E00895E0E0F0E0089568D220
:10077E0000E010E00830E0E01E078CF422E030E0EC
:10078E002A30E0E03E0744F40FD2E1E0F0E0ED93D2
:10079E00FC932F5F3F4FF4CF0F5F1F4FEBCF83DEE6
:1007AE0056D2249608957724EFEFE1B9E4B9E0E04C
:1007BE00E2B9EFEFE5B93B9AE7B1EF70E7B9E8B10F
:1007CE00E06FE8B97720E9F484DF7720D1F43324A1
:1007DE004424E4E0F0E05E2E6F2E75DF8F01D80129
:1007EE0086DDABDD60DE8824882049F492DF9F0130
:1007FE00D901DBDE58DEAAE0B0E090D2F5CF03DF00
:10080E00E1CFB5DF50DEFECFFFCF1A931A2FE09166
:10081E00C000E072E1F31093C6001991089510D252
:10082E008D013C81A32FF1DFD801ED91FD91319621
:10083E00FE93EE930CD225960895BA93AA9326971B
:10084E00FDD110E0AC85BD85E0E0F0E0ED93FC93CA
:10085E00EA89FB893196EA8BFB8B3197E4912E2F37
:10086E00E03009F40BC1E12FE03031F4253211F400
:10087E0011E001C0C6D101C1E130A1F4253211F45D
:10088E00C0D1FAC012E040E000E02D3211F401E0D8
:10089E00F4C02B3211F44BE2F0C0203211F440E2DE
:1008AE00ECC002C0E23039F450E013E0203311F412
:1008BE000068E3C003C0E33009F0DFC0203310F05E
:1008CE002A3308F007C0AAE05A9F502DE22FE053BA
:1008DE005E0FD3C0E22FE33639F49AD1E889F98955
:1008EE00A481AA939BD1C8C0E33729F491D19CD19E
:1008FE000FD11E2F07C0E03749F48AD195D114D1FC
:10090E001E2F086002600F7730E03AC0E43611F017
:10091E00E93611F4046002C0E53731F4ECE5F1E09C
:10092E00EE83FF8315E00CC0E83511F4086003C0B8
:10093E00E83709F0A1C0E6E6F1E0EE83FF8314E0AC
:10094E0002FF15C065D1A889B9891496ED91FD9164
:10095E00EA87FB87AB85AA2322F47ED1EA87FB8741
:10096E004DE2403011F01F5F01C00B7F09C050D126
:10097E00A889B9891496ED91FC911197EA87FB87A6
:10098E0000FD10C0151770F407FF08C002FF04C069
:10099E000B7F242F115001C020E301C020E231D182
:1009AE005150F0CF312F01FF16C0303099F003FFB8
:1009BE0006C0EE81FF812591EE83FF8305C0AE81D7
:1009CE00BF812D91AE83BF831CD1503009F05150A1
:1009DE003150EBCF48C020E3EE81FF819BD1E887F9
:1009EE00F987EE81FF813296EE83FF83E885F985E4
:1009FE00AA85BB85AE17BF0750F02F5FA885B985B6
:100A0E00EA85FB85EA1BFB0BEA87FB87EFCF2A33D0
:100A1E0028F003FF02C0295F01C0295D04FD19C043
:100A2E00213320F4A885B985119709F409C053170D
:100A3E0010F000FF01C011C020E207FF0AC020E342
:100A4E00006102FF06C00B7F4A93E8D0503009F0D8
:100A5E005150D7D0503009F051503150A885B9853A
:100A6E00129708F0B8CF00FF07C0503029F0515050
:100A7E00E0E2EA93D3D0F9CF10E0EACEAC85BD85A3
:100A8E00ED91FD91E2D064960895FF92F82E26978F
:100A9E001A930A93DE0114960024AF0DB01D8D013A
:100AAE00E0E0EC83ED83EE83EF83DE011896002405
:100ABE00AF0DB01DED91FD91FA93EA931A930A933F
:100ACE00E6E1F4E0FA93EA93DE011896B6DE1981B8
:100ADE0008812896FF900895E0911003F09111037C
:100AEE006091120370911303ADE6BEE486EC91E4BF
:100AFE00D0D0EE59F8486F4F7F4FE0931003F0932C
:100B0E0011036093120370931303FB01FF77089593
:100B1E00BA93AA93A991B991EE27FF276D916623F7
:100B2E0011F03196FBCF0895BA93AA93AA27BB274B
:100B3E00E991F9910590002011F01196FBCFFD017E
:100B4E000895F80197D0E051FD4FDF01F901EE0F46
:100B5E00FF1F0895EA0FFB1FBF01FA010895AE0FA4
:100B6E00BF1FF901EE0FFF1F0895AE0FBF1FED91CE
:100B7E00FD910895F801E30DF41DA8E1B0E081D0D8
:100B8E00E050FE4FDF01F901E50DF61DEE0FFF1FE0
:100B9E000895EA0FFB1F0F01D4CFAE0FBF1FE0E089
:100BAE00F0E0ED93FC930895A8E1A09FF001A19FC2
:100BBE00F00DE050FE4FDF01F901EE0FFF1FAE0FFB
:100BCE00BF1F0895AE0FBF1FED91FC911197309787
:100BDE000895A8E1A49FF001A59FF00DE050FE4FEF
:100BEE000895FA93EA9380E050DF22960895DF018C
:100BFE00F901EE0FFF1F0895A0E0B2E0EE0FFF1F08
:100C0E0008952A93AD85BE85EF85F88909950895D7
:100C1E00E889F9893497E88BF98B0895AD85BE85FF
:100C2E00EF85F88909950895A889B9891496ED91EB
:100C3E00FD91EE83FF83AE81BF8108955A934A934F
:100C4E003A932A931A930A9308955D814C813B81BE
:100C5E002A81198108810895F195E195F040089552
:100C6E00EE230E2EEA2F19F0EE0F0A94E9F70895EF
:100C7E00EE0FFF1FEE0FFF1FEE0FFF1FEE0FFF1FFA
:100C8E000895FA9FF02DEB9FF00DEA9FE02DF10DE8
:100C9E0008957A9F702D6B9F700DF89F700DE99FD0
:100CAE00700D6A9F602D710DFB9F600D711DE89F89
:100CBE00600D711D8827FA9FF02D610D781FEB9F37
:100CCE00F00D611D781FEA9FE02DF10D681F781F52
:100CDE0008950024112490E1AA0FBB1F001C111CC3
:100CEE000E1A1F0A18F40E0E1F1E01C0A1609A954F
:100CFE0099F7FD01D0010895E894B7FF04C0B195AE
:100D0E00A195B0406894F7FDA7DFE3DFFD010EF477
:100D1E00A3DF08950590F491E02D0895109639F013
:100D2E00A89588E893E10197F1F71197C9F708950F
:00000001FF
